:1000000090EF0EF00000000000EF00F00000000094
:0A0010000000000000000000F3D71C
:0E001C00010141B102D08B9801D08B881200F7
:0E002A00010141B102D08B9601D08B861200ED
:0E003800010141B102D08D9601D08D861200DB
:0E004600010141B102D0899401D089841200D9
:0E005400010141B102D08B9C01D08B8C1200B7
:0E006200010141B102D08B9401D08B841200B9
:0E007000010141B102D08B9A01D08B8A12009F
:0E007E00010141B102D08B9E01D08B8E120089
:0E008C00010141B102D08A9201D08A82120095
:0E009A00010141B102D08D9401D08D8412007D
:0E00A800010141B102D08F9201D08F8212006F
:0E00B600010141B102D08F9401D08F8412005D
:0E00C400010141B102D08B9801D08B8812004F
:0E00D200010141B102D08B9601D08B86120045
:0E00E000010141B102D08A9401D08A8412003D
:0E00EE00010141B102D08B9801D08B88120025
:0E00FC00010141B102D08B9601D08B8612001B
:0E010A00010141B102D08F9001D08F80120010
:0E011800010141B102D08B9A01D08B8A1200F6
:0E012600010141B102D08B9801D08B881200EC
:0E013400010141B102D08B9601D08B861200E2
:0E014200010141B102D08B9201D08B821200DC
:0E015000010141B102D08B9A01D08B8A1200BE
:0E015E00010141B102D08D9001D08D801200C0
:10016C000F0121B302D00000FBD741C11CFF1200CC
:0E017C00ACB202D00000FCD741C1ADFF1200B2
:0E018A00010141B102D08B9001D08B80120098
:0E019800010141B102D0899001D0898012008E
:0E01A600010141B102D08A9001D08A8012007E
:0E01B400010141B102D08D9201D08D82120066
:0E01C200010141B102D0899801D08988120054
:0E01D000010141B102D08B9801D08B88120042
:0E01DE00010141B102D08B9601D08B86120038
:0E01EC00010141B102D0899201D08982120036
:0E01FA00010141B102D08B9C01D08B8C120010
:0E020800010141B102D08B9E01D08B8E1200FD
:0E021600010141B102D08B9801D08B881200FB
:0E022400010141B102D08B9601D08B861200F1
:10023200C7B409D01F0EC514016E0150000A03E1B4
:0A024200010E006E01D0006A1200E8
:10024C00F250026EF29E0500FF6A0150FE6E0050E5
:08025C00FD6E02BEF28E1200DD
:1002640068B409D01F0E6614016E0150000A03E140
:0A027400010E006E01D0006A1200B6
:0A027E00000EA4BA010E006E12007B
:0A028800000EACB2010E006E120071
:0C029200000E0F0121B3010E006E1200DF
:0A029E00000E82B0010E006E120087
:0A02A800000E80B0010E006E12007F
:0A02B200000E9EBA010E006E12004D
:1002BC006EC03DF16FC03EF170C03FF171C040F1B6
:1002CC0001013B6B3C6B3C51120802E13B518E0827
:1002DC0008E3C2DF005201E004D001013B4B3C2B90
:1002EC00F2D70101120E3C5D02E18F0E3B5D03E380
:1002FC007B0E006E26D0668066A022D000016E5167
:10030C006F11701171111BE001013D513E113F1134
:10031C0040110EE1E5C0E1FFE6C0E2FF050EE66E1E
:10032C00E3C000F0E4C001F08BDF010E006E09D0D9
:10033C00010E01013D5F000E3E5B3F5B405BDCD775
:04034C00006A120031
:0A035000000E84B2010E006E1200D0
:10035A00AECF01F0ABA202D0AB98AB8801C000F0DF
:02036A0012007F
:10036C001DCF01F00F0122A302D02299228901C0D6
:04037C0000F012007B
:0A038000000E82B8010E006E12009C
:0A038A00000E84B0010E006E120098
:0A039400000E82B6010E006E12008A
:0A039E00000E82BC010E006E12007A
:0A03A800000E82B8010E006E120074
:0A03B200000E80B8010E006E12006C
:0A03BC00000E80B2010E006E120068
:0A03C600000E82BE010E006E120050
:0A03D000000E82B8010E006E12004C
:0A03DA00000E82B6010E006E120044
:0A03E400000E82BA010E006E120036
:0A03EE00000E81B0010E006E120037
:0A03F800000E82B2010E006E12002A
:0A040200000E82BA010E006E120017
:0A040C00000E82B8010E006E12000F
:100416006AC03DF16BC03EF16CC03FF16DC040F16A
:100426009E96C5869EB620D000016A516B116C114E
:100436006D1119E001013D513E113F1140110CE1D2
:10044600D4C0E1FFD5C0E2FF030EE66ED2C000F0D5
:10045600D3C001F0F8DE08D0010E01013D5F000EA9
:100466003E5B3F5B405BDED70101C9CF3CF13B51B0
:10047600000A02E1C58A01D0C59A9E96C5886AC05F
:100486003DF16BC03EF16CC03FF16DC040F19EB6D0
:1004960020D000016A516B116C116D1119E0010138
:1004A6003D513E113F1140110CE1D4C0E1FFD5C0D2
:1004B600E2FF030EE66ED2C000F0D3C001F0C3DE49
:1004C60008D0010E01013D5F000E3E5B3F5B405BC5
:0804D600DED73CC100F012006A
:1004DE009E963BC1C9FF6AC03CF16BC03DF16CC03A
:1004EE003EF16DC03FF1C7A422D000016A516B11DD
:1004FE006C116D111BE001013C513D113E113F117C
:10050E000EE1D4C0E1FFD5C0E2FF040EE66ED2C00C
:10051E0000F0D3C001F093DE010E006E3BD0010E51
:10052E0001013C5F000E3D5B3E5B3F5BDCD76AC06A
:10053E003CF16BC03DF16CC03EF16DC03FF19EB61B
:10054E0022D000016A516B116C116D111BE001017B
:10055E003C513D113E113F110EE1D4C0E1FFD5C01B
:10056E00E2FF040EE66ED2C000F0D3C001F067DEEB
:10057E00010E006E0FD0010E01013C5F000E3D5BBF
:10058E003E5B3F5BDCD7C5BC02D0006A03D0C5849E
:06059E00020E006E1200C7
:0A05A400000E86B4010E006E120076
:0A05AE00000E84B4010E006E12006E
:0A05B800000E82B6010E006E120064
:0A05C200000E81B4010E006E12005D
:1005CC006EC03BF16FC03CF170C03DF171C03EF1AB
:1005DC00668266A220D000016E516F1170117111EC
:1005EC0019E001013B513C113D113E110CE1E5C0FC
:1005FC00E1FFE6C0E2FF060EE66EE3C000F0E4C0E9
:10060C0001F01EDE08D0010E01013B5F000E3C5BC9
:08061C003D5B3E5BDED71200DE
:0406240066841200D6
:100628006AC03DF16BC03EF16CC03FF16DC040F156
:1006380001013B6B3C6B3C51120802E13B518E08B7
:1006480008E3F3DD005201E004D001013B4B3C2BF1
:10065800F2D70101120E3C5D02E18F0E3B5D03E310
:100668007B0E006E26D0C580C5A022D000016A513D
:100678006B116C116D111BE001013D513E113F11D1
:1006880040110EE1D4C0E1FFD5C0E2FF050EE66ED1
:10069800D2C000F0D3C001F0D5DD010E006E09D044
:1006A800010E01013D5F000E3E5B3F5B405BDCD706
:0406B800006A1200C2
:1006BC00A19A3BC16AFF6EC03CF16FC03DF170C0A6
:1006CC003EF171C03FF168A422D000016E516F1150
:1006DC00701171111BE001013C513D113E113F1194
:1006EC000EE1E5C0E1FFE6C0E2FF040EE66EE3C0FA
:1006FC0000F0E4C001F0A4DD010E006E3BD0010E51
:10070C0001013C5F000E3D5B3E5B3F5BDCD76EC086
:10071C003CF16FC03DF170C03EF171C03FF1A1BA28
:10072C0022D000016E516F11701171111BE001018B
:10073C003C513D113E113F110EE1E5C0E1FFE6C019
:10074C00E2FF040EE66EE3C000F0E4C001F078DDD9
:10075C00010E006E0FD0010E01013C5F000E3D5BDF
:10076C003E5B3F5BDCD766BC02D0006A03D066847C
:06077C00020E006E1200E7
:0A078200000E86B2010E006E120098
:04078C00C58412000E
:100790006EC03DF16FC03EF170C03FF171C040F1DD
:1007A000A19A6686A1BA20D000016E516F11701116
:1007B000711119E001013D513E113F1140110CE151
:1007C000E5C0E1FFE6C0E2FF030EE66EE3C000F025
:1007D000E4C001F03BDD08D0010E01013D5F000ED9
:1007E0003E5B3F5B405BDED701016ACF3CF13B5192
:1007F000000A02E1668A01D0669AA19A66886EC0F4
:100800003DF16FC03EF170C03FF171C040F1A1BA3F
:1008100020D000016E516F117011711119E00101AA
:100820003D513E113F1140110CE1E5C0E1FFE6C032
:10083000E2FF030EE66EE3C000F0E4C001F006DD67
:1008400008D0010E01013D5F000E3E5B3F5B405B47
:08085000DED73CC100F01200EC
:0A085800000E81B2010E006E1200C6
:100862006AC03BF16BC03CF16CC03DF16DC03EF122
:10087200C582C5A220D000016A516B116C116D11A5
:1008820019E001013B513C113D113E110CE1D4C074
:10089200E1FFD5C0E2FF060EE66ED2C000F0D3C083
:1008A20001F0D3DC08D0010E01013B5F000E3C5B7E
:0808B2003D5B3E5BDED7120046
:0A08BA00000E86B0010E006E120061
:0A08C400000E80B4010E006E120059
:0A08CE00000E82B4010E006E12004D
:0A08D800000E82B6010E006E120041
:0A08E200000E82B8010E006E120035
:0A08EC00000E84B6010E006E12002B
:0A08F600000E82BC010E006E12001D
:0A090000000E82B6010E006E120018
:0A090A00000E82B8010E006E12000C
:0A091400000E82B6010E006E120004
:0A091E00000E82BE010E006E1200F2
:0A092800000E82BA010E006E1200EC
:100932000101316B326BD7C000F0D8C001F085DC09
:1009420000C031F1000E0101326F31C100F032C13D
:0409520001F012009E
:10095600086A096A100E0C6E01340836093604500E
:10096600085E0550D8A0053C095ED8B007D00450F3
:1009760008260550D8B0053C0926D8900036013621
:060986000C2EEAD712005E
:10098C00320E0001DB6F020EDC6F000EDD6F000E0D
:10099C00DE6F280EDF6F060EE06F000EE16F000EAB
:1009AC00E26F620EBA6F080EBB6F000EBC6F000ECA
:1009BC00BD6F160EBE6F040EBF6F3B0EC06F010EE7
:1009CC00C16FDE0EB26F040EB36F3B0EB46F010E2F
:1009DC00B56F8C0EB66F070EB76F000EB86F000EAA
:1009EC00B96F949894968B988B9694889486C79E9E
:0809FC00C79C380EC66E120004
:100A04007C0E0001CA6F010ECB6F410ECC6F010E3C
:100A1400CD6F5A0ECE6F030ECF6F000ED06F000E47
:100A2400D16FB20EC26F020EC36F000EC46F000E00
:100A3400C56F880EC66F020EC76F000EC86F000E1A
:100A4400C96FAC8A900EAB6E948E949C9EAA03D010
:080A5400AECF00F0FBD7120049
:100A5C006C0E0001CA6F010ECB6F410ECC6F010EF4
:100A6C00CD6F6C0ECE6F030ECF6F000ED06F000EDD
:100A7C00D16F7E0EC26F020EC36F000EC46F000EDC
:100A8C00C56F920EC66F020EC76F000EC86F000EB8
:100A9C00C96F0F01218B900E226F98849892A4AA93
:0A0AAC0003D01DCF00F0FBD71200AD
:100AB6000101396B3A6B32C137F133C138F131C1BB
:100AC60000F0003600909CC0E1FF9DC0E2FF00C030
:100AD600E6FF9AC000F09BC001F026EC01F0005042
:100AE60001013913000E3A1334C100F035C101F08B
:100AF600010E345F000E355B0050011018E09CC0FB
:100B0600E1FF9DC0E2FF37C1E9FF38C1EAFFEECF42
:100B1600E6FF9AC000F09BC001F026EC01F0005001
:100B260001013913000E3A13374B382BDDD73651F6
:100B3600000A06E1A6C000F0A7C001F026EC01F00D
:100B460001013651010A06E1AAC000F0ABC001F06E
:0E0B560026EC01F039C100F03AC101F01200A6
:100B640021D0CF0EAF6EAC944BDF6BD0670EAF6E5F
:100B7400AC9446DF66D0CF0EAF6EAC8441DF61D05B
:100B8400670EAF6EAC843CDF5CD0440EAF6EAC84B9
:100B940037DF57D0220EAF6EAC8432DF52D0060E50
:100BA400006E59D0000E006E01012A1908E10050B0
:100BB400291905E1120E281902E12751C00AD1E0D2
:100BC400000E006E2A1908E10050291905E1250ECE
:100BD400281902E12751800AC9E0000E006E2A1983
:100BE40008E10050291905E14B0E281902E12751AB
:100BF400000AC1E0000E006E2A1908E1005029190C
:100C040005E1960E281902E12751000AB9E0000E09
:100C1400006E2A1908E10050291905E1E10E28198E
:100C240002E12751000AB1E02A51000A08E12951E2
:100C3400010A05E12851C20A02E12751000AAAE08B
:100C4400AED77C0E0001966F010E976F410E986F20
:080C5400010E996F006A120005
:100C5C0027C12AF128C12BF129C12CF10BD0A00EF0
:100C6C00C86E8EDE44D0280EC86E8ADE40D0040ECC
:100C7C00006E3FD02AC1F6FF2BC1F7FF2CC1F8FF45
:100C8C000900F5CF01F00900F5CF02F00900F5CF0E
:100C9C0003F00900F5CF04F00450000A08E10350FA
:100CAC00010A05E10250860A02E10150A00AD7E0D0
:100CBC002AC1F6FF2BC1F7FF2CC1F8FF0900F5CFB5
:100CCC0001F00900F5CF02F00900F5CF03F009009F
:100CDC00F5CF04F00450000A08E10350060A05E1C0
:100CEC0002501A0A02E10150800ABDE0C0D7000E82
:040CFC00006E120074
:100D000021D0CF0EAF6EAC947DDE6BD0670EAF6E90
:100D1000AC9478DE66D0CF0EAF6EAC8473DE61D05B
:100D2000670EAF6EAC846EDE5CD0440EAF6EAC84EA
:100D300069DE57D0220EAF6EAC8464DE52D0060E50
:100D4000006E59D0000E006E01012A1908E1005012
:100D5000291905E1120E281902E12751C00AD1E034
:100D6000000E006E2A1908E10050291905E1250E30
:100D7000281902E12751800AC9E0000E006E2A19E5
:100D800008E10050291905E14B0E281902E127510D
:100D9000000AC1E0000E006E2A1908E1005029196E
:100DA00005E1960E281902E12751000AB9E0000E6C
:100DB000006E2A1908E10050291905E1E10E2819F1
:100DC00002E12751000AB1E02A51000A08E1295145
:100DD000010A05E12851C20A02E12751000AAAE0EE
:100DE000AED77C0E0001966F010E976F410E986F83
:080DF000010E996F006A120068
:100DF80038D00F0120870D0E1F6F040E1E6F21853E
:100E080029DE7ED00F012087060E1F6F820E1E6F0F
:100E1800218520DE75D00F012087030E1F6F400E3D
:100E28001E6F218517DE6CD00F012087010E1F6F02
:100E3800A00E1E6F21850EDE63D00F012087010EE4
:100E48001F6F150E1E6F218505DE5AD00F012087F2
:100E58001F6B8A0E1E6F2185FDDD52D0060E006EB7
:100E680059D0000E006E01012A1908E10050291915
:100E780005E1120E281902E12751C00ABAE0000E56
:100E8800006E2A1908E10050291905E1250E2819D4
:100E980002E12751800AB6E0000E006E2A1908E127
:100EA8000050291905E14B0E281902E12751000AC3
:100EB800B2E0000E006E2A1908E10050291905E178
:100EC800960E281902E12751000AAEE0000E006EC6
:100ED8002A1908E10050291905E1E10E281902E153
:100EE8002751000AAAE02A51000A08E12951010AFB
:100EF80005E12851C20A02E12751000AA7E0AED74E
:100F08006C0E0001966F010E976F410E986F010EDF
:060F1800996F006A12004F
:100F1E0021D0CF0EAF6EAC946EDD6BD0670EAF6E80
:100F2E00AC9469DD66D0CF0EAF6EAC8464DD61D05B
:100F3E00670EAF6EAC845FDD5CD0440EAF6EAC84DA
:100F4E005ADD57D0220EAF6EAC8455DD52D0060E50
:100F5E00006E59D0000E006E01012A1908E10050F2
:100F6E00291905E1120E281902E12751C00AD1E014
:100F7E00000E006E2A1908E10050291905E1250E10
:100F8E00281902E12751800AC9E0000E006E2A19C5
:100F9E0008E10050291905E14B0E281902E12751ED
:100FAE00000AC1E0000E006E2A1908E1005029194E
:100FBE0005E1960E281902E12751000AB9E0000E4C
:100FCE00006E2A1908E10050291905E1E10E2819D1
:100FDE0002E12751000AB1E02A51000A08E1295125
:100FEE00010A05E12851C20A02E12751000AAAE0CE
:100FFE00AED77C0E0001966F010E976F410E986F63
:08100E00010E996F006A120047
:1010160059D0010128B102D0929201D092820F01DB
:10102600259376D0010128B102D0929801D09288FA
:101036006FD0010128B102D0969201D0968268D075
:10104600010128B102D0949601D0948661D00101A5
:1010560028B102D0949801D094885AD0010128B1C1
:1010660002D0949A01D0948A53D0010128B102D0BB
:10107600949401D094844CD0010128B102D093926B
:1010860001D0938245D0010128B102D0949E01D0AF
:10109600948E3ED0010128B102D0949C01D0948C4C
:1010A60037D0010128B102D0949601D0948630D071
:1010B600010128B102D0949801D0948829D0010E5C
:1010C600006E28D001012751000AA3E02751010A2A
:1010D600A9E02751020AADE02751030AB1E02751E2
:1010E600040AB5E02751050AB9E02751060ABDE012
:1010F6002751070AC1E02751080AC5E02751090A06
:10110600C9E027510A0ACDE027510B0AD1E0D7D70B
:06111600000E006E120045
:10111C0059D0010128B102D0929001D092800F01D8
:10112C00259176D0010128B102D0949001D0948001
:10113C006FD0010128B102D0969001D0968068D072
:10114C00010128B102D0949601D0948661D001019E
:10115C0028B102D0949801D094885AD0010128B1BA
:10116C0002D0949A01D0948A53D0010128B102D0B4
:10117C00949201D094824CD0010128B102D093906A
:10118C0001D0938045D0010128B102D0949E01D0AA
:10119C00948E3ED0010128B102D0949C01D0948C45
:1011AC0037D0010128B102D0949601D0948630D06A
:1011BC00010128B102D0949801D0948829D0010E55
:1011CC00006E28D001012751000AA3E02751010A23
:1011DC00A9E02751020AADE02751030AB1E02751DB
:1011EC00040AB5E02751050AB9E02751060ABDE00B
:1011FC002751070AC1E02751080AC5E02751090AFF
:10120C00C9E027510A0ACDE027510B0AD1E0D7D704
:06121C00000E006E12003E
:101222005DD0010128B102D0929401D092840F01C5
:1012320025957AD0010128B102D0969601D09686E2
:1012420073D0010128B102D0969401D096846CD05B
:10125200010128B102D0949601D0948665D0010193
:1012620028B102D0949801D094885ED0010128B1AF
:1012720002D0949A01D0948A57D0010128B102D0A9
:10128200989001D0988050D0010128B102D0939457
:1012920001D0938449D0010128B102D0989401D0A1
:1012A20098840F01239540D0010128B102D0989271
:1012B20001D098820F01239337D0010128B102D0C7
:1012C200949601D0948630D0010128B102D094982E
:1012D20001D0948829D0010E006E28D00101275137
:1012E200000A9FE02751010AA5E02751020AA9E05E
:1012F2002751030AADE02751040AB1E02751050A3C
:10130200B5E02751060AB9E02751070ABDE0275187
:10131200080AC1E02751090AC7E027510A0ACDE0AD
:0E13220027510B0AD1E0D7D7000E006E120043
:1013300027C12AF128C12BF129C12CF10DD0A00E13
:10134000C86EC6EC04F045D0280EC86EC6EC04F09A
:1013500040D0040E006E3FD02AC1F6FF2BC1F7FF2C
:101360002CC1F8FF0900F5CF01F00900F5CF02F01C
:101370000900F5CF03F00900F5CF04F00450000A8E
:1013800008E10350010A05E10250860A02E101501A
:10139000A00AD5E02AC1F6FF2BC1F7FF2CC1F8FF48
:1013A0000900F5CF01F00900F5CF02F00900F5CFF3
:1013B00003F00900F5CF04F00450000A08E10350DF
:1013C000060A05E102501A0A02E10150800ABCE057
:0813D000C0D7000E006E1200F0
:1013D80027C12AF128C12BF129C12CF10DD0A00E6B
:1013E800C86EC6EC04F045D0280EC86EC6EC04F0F2
:1013F80040D0040E006E3FD02AC1F6FF2BC1F7FF84
:101408002CC1F8FF0900F5CF01F00900F5CF02F073
:101418000900F5CF03F00900F5CF04F00450000AE5
:1014280008E10350010A05E10250860A02E1015071
:10143800A00AD5E02AC1F6FF2BC1F7FF2CC1F8FF9F
:101448000900F5CF01F00900F5CF02F00900F5CF4A
:1014580003F00900F5CF04F00450000A08E1035036
:10146800060A05E102501A0A02E10150800ABCE0AE
:08147800C0D7000E006E120047
:10148000300E01012725006E000E2821016E000E8E
:101490002921026E1C0E0024F66E000E0120F76E4C
:1014A000000E0220F86E0900F5CF9EF00900F5CF7E
:1014B0009FF00900F5CFA0F00900F5CFA1F01200D0
:1014C00027C1F6FF28C1F7FF29C1F8FF0900F5CFB2
:1014D000D7F00900F5CFD8F00900F5CFD9F0090011
:1014E000F5CFDAF0040E01012725F66E000E282153
:1014F000F76E000E2921F86E0900F5CFA6F009005D
:10150000F5CFA7F00900F5CFA8F00900F5CFA9F0B5
:10151000080E2725F66E000E2821F76E000E2921F1
:10152000F86E0900F5CFAAF00900F5CFABF009007D
:10153000F5CFACF00900F5CFADF00C0E2725F66E17
:10154000000E2821F76E000E2921F86E0900F5CF54
:101550009AF00900F5CF9BF00900F5CF9CF0090047
:10156000F5CF9DF0100E2725F66E000E2821F76EA0
:10157000000E2921F86E0900F5CFA2F00900F5CF81
:10158000A3F00900F5CFA4F00900F5CFA5F01200F3
:1015900027C129F128C12AF199EC04F0D6C031F114
:1015A000290E326F010E336F020E346F000E356F4D
:0815B000366B5BEC05F0120044
:1015B80001012B6B050E2B5D0AE22B512925E16EEB
:1015C800000E2A21E26E200EE66E2B2BF3D72B514C
:1015D8002925E16E000E2A21E26EE66A2B072B51BF
:1015E80029252C6F000E2A212D6F0A0E046E000E7D
:1015F800056E27C100F028C101F0ABEC04F008C06B
:1016080000F009C001F0300E00262CC1E1FF2DC109
:10161800E2FF00C0E6FF0A0E046E000E056E27C149
:1016280000F028C101F0ABEC04F000C027F101C0C4
:1016380028F1000E011802E1000E001801E102D0A5
:061648002B07CDD71200B4
:10164E0001012F6B306B28C12DF129C12EF127C15D
:10165E0000F00036009000809CC0E1FF9DC0E2FFCC
:10166E0000C0E6FF9AC000F09BC001F026EC01F02E
:10167E00005001012F13000E3013010E2A5F000ED1
:10168E002B5B2A512B1116E0A4C0E1FFA5C0E2FF8F
:10169E00010EE66EA2C000F0A3C001F026EC01F030
:1016AE002DC1E1FF2EC1E2FF00C0E6FF01012D4B6F
:1016BE002E2BE3D7A4C0E1FFA5C0E2FFE66AA2C0CD
:1016CE0000F0A3C001F026EC01F02DC1E1FF2EC108
:1016DE00E2FF00C0E6FF01012C51000A06E1A6C0A0
:1016EE0000F0A7C001F026EC01F001012C51010A17
:1016FE0006E1AAC000F0ABC001F026EC01F02FC14C
:08170E0000F030C101F01200EF
:1017160098C0E1FF99C0E2FF27C1E9FF28C1EAFFAF
:10172600EECFE6FF96C000F097C001F026EC01F080
:04173600006A120033
:10173A000101236B246B1DC125F11EC126F1800E08
:10174A001E19006E800E005C02E1000E1D5D0BE2A8
:10175A00010E236F000E246F1D510008256F1EC154
:10176A0026F1000E265725C127F126C128F11FC1EF
:10177A0029F120C12AF11BDF060E216F000E226F0C
:10178A00000E006E2251005C02E12151000819E2AC
:10179A0021511F25E16E22512021E26E010E215DA9
:1017AA00006E000E2259016E00501F25E96E01508D
:1017BA002021EA6EEECFE6FF010E215F000E225BCA
:1017CA00DFD71FC1E1FF20C1E2FF200EE66E2351E1
:1017DA0024111AE0216B226B21511F25E96E225137
:1017EA002021EA6EEE50200A03E1214B222BF4D786
:1017FA00010E215F000E225B21511F25E16E22514D
:0A180A002021E26E2D0EE66E1200A2
:101814001CD01EC127F11FC128F120C129F1DADD36
:101824001FD01EC127F11FC128F120C129F17EDD7F
:1018340017D01EC127F11FC128F120C129F12EECB8
:1018440006F00ED0010E006E0BD001011D51000AEE
:10185400E0E01D51010AE5E01D51020AEAE0F2D779
:02186400120070
:1018660016D01EC127F11FC128F155DC1BD01EC1A1
:1018760027F11FC128F10BEC08F014D01EC127F187
:101886001FC128F1CBDC0ED0010E006E0BD001017A
:101896001D51000AE6E01D51010AE9E01D51020A48
:0618A600EDE0F2D7120094
:1018AC001DC120F11EC121F10D0E0101226F0A0E86
:1018BC00236F35D020C127F121C128F126DF3AD082
:1018CC0020C1E9FF21C1EAFFEE5209E020C127F156
:1018DC0021C128F11ADF0101204B212BF1D72AD08D
:1018EC0020C1E9FF21C1EAFFEE5209E020C127F136
:1018FC0021C128F10ADF0101204B212BF1D7010175
:10190C00220E276F010E286F00DF230E0101276FB7
:10191C00010E286FFADE0ED0060E006E0CD00101FF
:10192C001F51000AC7E01F51010ACAE01F51020AE9
:08193C00D7E0F2D7006A1200A7
:0E1944009EC000F09FC001F026EC01F01200E2
:101952002FD01EC127F11FC128F120C129F121C1B9
:101962002AF1B2EC05F032D01EC127F11FC128F1D5
:1019720020C129F121C12AF18FEC07F027D01EC125
:1019820027F11FC128F120C129F121C12AF1FCEC64
:1019920006F01CD01EC127F11FC128F120C129F178
:1019A20021C12AF180EC06F011D0010E006E0ED09A
:1019B20001011D51000ACDE01D51010AD5E01D5162
:0E19C200020ADDE01D51100AE5E0EFD7120029
:1019D00023C1D6F020C127F121C128F122C129F16C
:1019E0006FDD1DC127F11EC128F11FC129F148DD9E
:0219F0001200E3
:1019F2001DC11EF199EC04F0D6C031F11E0E326FFA
:101A0200010E336F010E346F000E356F010E366F0B
:101A12005BEC05F0D6C027F11F0E0101286F010E05
:101A2200296F020E2A6F000E2B6F2C6B0FDE1FC167
:101A320021F1000E0101226F21C101F0006A00C0F4
:101A420021F101C022F120510012000E011200C04A
:081A520021F101C022F1120094
:101A5A00A00E0101206F1D5120131EC121F121C1C9
:101A6A0000F00036009000360090003600900036F4
:101A7A00009000C021F11F5121130E0E276F20C1C3
:101A8A0028F181DD0F0E0101276F21C128F17BDDCD
:021A9A00120038
:101A9C0001011D6B070E1E6F010E1F6FDEDE0101B3
:101AAC001D6B230E1E6F1E0E1F6F000E206FACDE03
:101ABC00100E01011D6F800E1E6F250E1F6F000E84
:101ACC00206F216F40DF720E01011D6F000E1E6F23
:101ADC00020E1F6FE5DE090E0B6E1E0E0C6EE40E71
:101AEC000D6E0D2EFED70C2EFCD70B2EFAD7000048
:021AFC001200D6
:101AFE000900F5CFE6FF0006FBE10106F9E1120051
:101B0E00AF0E01011D6F1D0E1E6F000E1F6F0F0E0B
:101B1E00206F1E0E216F000E226F2A0E236F51DFD3
:101B2E000B0E276F800E006E080E0010286F29DD39
:101B3E000C0E0101276F100E006E010E0010286FA3
:101B4E0020DD0D0E0101276F100E286F1ADD0B0E12
:101B5E000101276F080E286F14DD000E01011D6FA5
:0C1B6E00000E1E6F040E1F6F71DF1200CE
:101B7A00000E0101276F800E006E040E0010286F00
:101B8A0002DD000E0101276F080E006E040E001020
:101B9A00286FF9DC030E01011D6F26DF00C019F161
:101BAA0001C01AF100C01DF101C01EF1E70E1F6F3E
:101BBA00000E206FBDDD8A0E1D6F000E1E6F010E16
:101BCA001F6F6FDEE70E01011D6F000E1E6F010E03
:101BDA001F6F67DE860E01011D6F000E1E6F020E5B
:101BEA001F6F5FDE050E01011D6FFEDE00C01BF1D7
:101BFA0001C01CF100C01DF101C01EF1E70E1F6FEC
:101C0A00000E206F95DD450E1D6F000E1E6F010E32
:101C1A001F6F47DEE70E01011D6F000E1E6F010EDA
:101C2A001F6F3FDE530E01011D6F000E1E6F020E65
:101C3A001F6F37DE070E01011D6FD6DE00C0AEF042
:101C4A0001C0AFF000C01DF101C01EF1E70E1F6F09
:101C5A00000E206F6DDD380E1D6F000E1E6F010E17
:101C6A001F6F1FDEE70E01011D6F000E1E6F010EB2
:101C7A001F6F17DE660E01011D6F000E1E6F020E2A
:101C8A001F6F0FDE090E01011D6FAEDE00C0B0F03E
:101C9A0001C0B1F000C01DF101C01EF1E70E1F6FB7
:101CAA00000E206F45DD570E1D6F000E1E6F010ED0
:101CBA001F6FF7DDE70E01011D6F000E1E6F010E8B
:101CCA001F6FEFDD620E01011D6F000E1E6F020E07
:101CDA001F6FE7DD150E01011D6F000E1E6F020E4C
:101CEA001F6FDFDD2ADE0050010A08E1270E01011D
:101CFA001D6F000E1E6F020E1F6FD3DD290E0B6EB5
:101D0A00960E0C6E7F0E0D6E0D2EFED70C2EFCD786
:061D1A000B2EFAD71200A7
:0E1D200014EC0FF0BBDEF3DE28DFFED7FFD79A
:101E280010EE15F0810E006E010E016E2E0EF66E8C
:0E1E38001D0EF76E000EF86E7FEC0DF012001E
:101D2E002D2D2D2D2D2D2D2D2D2D2D2D2D2D2D0DF5
:021D3E000A0099
:101D400050726F78696D6974792064657465637425
:011D50000092
:0D1D5100424C55452064617461203A200029
:0E1D5E00475245454E2064617461203A2000D2
:041D6C00206E6D0078
:0B1D700049522064617461203A200099
:041D7B00206E6D0069
:041D7F00206E6D0065
:041D8300000000005C
:041D87000000000058
:101D8B002D2D2D2053797374656D20696E69742028
:041D9B002D2D2D00BD
:041D9F00206E6D0045
:0C1DA3005245442064617461203A200025
:101DAF00980141018A0141015E0141013401410164
:101DBF00260141015001410142014101A6014101AA
:101DCF0008024101FA0141012402410116024101B9
:101DDF00A80200009E0200008A030000DA03000040
:101DEF00D0030000E4030000F8030000EE0300003E
:101DFF00C60300009E03000094030000A803000028
:101E0F00280600008C07000062080000DE043B017A
:041E1F0016043B0169
:041E2300A086010094
:020000040030CA
:0E00000015137F7CF98B91FFFFC0FFE0FF40DE
:00000001FF
